:100000000C9434000C943E000C943E000C943E0082
:100010000C943E000C943E000C943E000C943E0068
:100020000C943E000C943E000C943E000C943E0058
:100030000C943E000C943E000C943E000C943E0048
:100040000C943E000C943E000C943E000C943E0038
:100050000C943E000C943E000C943E000C943E0028
:100060000C943E000C943E0011241FBECFEFD8E04C
:10007000DEBFCDBF0E9440000C94F6000C9400003F
:1000800084B1806284B985B18F7D85B984B1826085
:1000900084B985B18D7F85B984B1846084B985B117
:1000A0008B7F85B984B1886084B985B1877F85B934
:1000B00084B1806184B985B18F7E85B98AB18F7E24
:1000C0008AB98BB180618BB920E080E090E04C99D7
:1000D0008AC021E088C0019709F043C095B182E051
:1000E000982795B93FEF49E698E13150404090405C
:1000F000E1F700C0000095B1892785B995B184E08A
:10010000982795B93FEF49E698E13150404090403B
:10011000E1F700C0000095B1892785B995B188E065
:10012000982795B93FEF49E698E13150404090401B
:10013000E1F700C0000095B1892785B995B180E14C
:10014000982795B93FEF49E698E1315040409040FB
:10015000E1F700C0000095B1892785B980E090E003
:1001600042C095B180E2982795B93FEF49E698E102
:10017000315040409040E1F700C0000095B1892720
:1001800085B995B180E1982795B93FEF49E698E1A7
:10019000315040409040E1F700C0000095B1892700
:1001A00085B995B188E0982795B93FEF49E698E180
:1001B000315040409040E1F700C0000095B18927E0
:1001C00085B995B184E0982795B93FEF49E698E164
:1001D000315040409040E1F700C0000095B18927C0
:1001E00085B981E090E0211176CF71CFF894FFCFEF
:00000001FF
