S012000030352D7365676D656E742E737265638D
S11300000C9475000C9492000C9492000C94920041
S11300100C9492000C9492000C9492000C94920014
S11300200C9492000C9492000C9492000C94920004
S11300300C9492000C94D7000C9492000C949200AF
S11300400C94ED000C9492000C9492000C94920089
S11300500C9492000C9492000C9492000C949200D4
S11300600C9492000C94920007634236B79BD8A775
S11300701A39685618AEBAAB558C1D3CB7CC5763C9
S1130080BD6DEDFD753EF6177231BF000000803F77
S113009008000000BE922449123EABAAAA2ABECD93
S11300A0CCCC4C3E00000080BEABAAAAAA3E000005
S11300B00000BF000000803F0000000000084178FD
S11300C0D3BB4387D1133D190E3CC3BD4282AD2B34
S11300D03E68EC8276BED98FE1A93E4C80EFFFBE2C
S11300E001C4FF7F3F000000000011241FBECFEFBA
S11300F0D8E0DEBFCDBF11E0A0E0B1E0EAE1FBE073
S113010002C005900D92AE30B107D9F721E0AEE000
S1130110B1E001C01D92A031B207E1F70E94B9001D
S11301200C948B050C940000FC01408121E030E02C
S113013002C0220F331F6A95E2F7242B208308950F
S1130140FC01908121E030E002C0220F331F6A9548
S1130150E2F72095292320830895FC01408121E0C2
S113016030E002C0220F331F6A95E2F7242B20836C
S113017008950E9469010E94EC01E1E8F0E08081A9
S11301808C7F808380818460808385B58C7F85BDEE
S113019085B5846085BDEFE6F0E080818160808371
S11301A0EEE6F0E08081816080837894FFCF1F9237
S11301B00F920FB60F9211248F9380910F018B33FE
S11301C018F010920F0103C08F5F80930F018F917D
S11301D00F900FBE0F901F9018951F920F920FB69D
S11301E00F9211248F929F92AF92BF92CF92DF927F
S11301F0EF92FF922F933F934F935F936F937F936D
S11302008F939F93AF93BF93CF93EF93FF93C0913B
S11302100E016C2F70E06F5F7F4F072E000C880B70
S1130220990B0E9494029B01AC0160E070E080E2B3
S113023091E40E9420034B015C016C2F70E080E08C
S113024090E00E9492029B01AC0160E070E080E2C9
S113025091E40E9420036B017C01C501B4010E945A
S1130260630280910F010E947F05692F70E080E096
S113027090E00E949402A70196010E94F1010E945D
S11302806302862F6C2F0E94790180910E018F5F8B
S1130290843019F080930E0102C010920E01FF9178
S11302A0EF91CF91BF91AF919F918F917F916F917A
S11302B05F914F913F912F91FF90EF90DF90CF90FE
S11302C0BF90AF909F908F900F900FBE0F901F9094
S11302D0189564E08AE290E00E94940067E08AE264
S11302E090E00E94940060E084E290E00E94940018
S11302F008951F93CF93DF93E82FF0E0EC5FFE4F58
S11303001081E62FF0E0E050FF4FD08164E08BE2F3
S113031090E00E94A00067E08BE290E00E94A000C1
S113032060E085E290E00E94A00085E08A95F1F704
S11303300000C8E010FF06C060E085E290E00E9483
S1130340AD0005C060E085E290E00E94A00085E079
S11303508A95F1F7000067E08BE290E00E94AD001F
S113036085E08A95F1F7000067E08BE290E00E9457
S1130370A0001695C150F1F6C8E0D0FF06C060E0B9
S113038085E290E00E94AD0005C060E085E290E067
S11303900E94A00085E08A95F1F7000067E08BE2F7
S11303A090E00E94AD0085E08A95F1F7000067E0D7
S11303B08BE290E00E94A000D695C150F1F664E073
S11303C08BE290E00E94AD0085E08A95F1F7000091
S11303D0DF91CF911F91089564E080E00E9479013C
S11303E008950E9405020C94E6020E94DF0258F070
S11303F00E94D80240F029F45F3F29F00C94CF0208
S113040051110C941A030C94D5020E94F70268F35C
S11304109923B1F3552391F3951B550BBB27AA27B9
S113042062177307840738F09F5F5F4F220F331FF3
S1130430441FAA1FA9F335D00E2E3AF0E0E832D0BB
S113044091505040E695001CCAF72BD0FE2F29D0BE
S1130450660F771F881FBB1F261737074807AB0790
S1130460B0E809F0BB0B802DBF01FF2793585F4F05
S11304703AF09E3F510578F00C94CF020C941A0385
S11304805F3FE4F3983ED4F3869577956795B795E7
S1130490F7959F5FC9F7880F911D9695879597F9F2
S11304A00895E1E0660F771F881FBB1F621773076B
S11304B08407BA0720F0621B730B840BBA0BEE1F80
S11304C088F7E09508950E94FF0288F09F5798F0FE
S11304D0B92F9927B751B0F0E1F0660F771F881F45
S11304E0991F1AF0BA95C9F714C0B13091F00E945F
S11304F01903B1E008950C941903672F782F882706
S1130500B85F39F0B93FCCF3869577956795B39585
S1130510D9F73EF490958095709561957F4F8F4FF4
S11305209F4F0895E89409C097FB3EF490958095F9
S1130530709561957F4F8F4F9F4F9923A9F0F92FA5
S113054096E9BB279395F695879577956795B79523
S1130550F111F8CFFAF4BB0F11F460FF1BC06F5F09
S11305607F4F8F4F9F4F16C0882311F096E911C01B
S1130570772321F09EE8872F762F05C0662371F03C
S113058096E8862F70E060E02AF09A95660F771F50
S1130590881FDAF7880F9695879597F9089597F944
S11305A09F6780E870E060E008959FEF80EC089515
S11305B000240A941616170618060906089500243E
S11305C00A9412161306140605060895092E0394B8
S11305D0000C11F4882352F0BB0F40F4BF2B11F42C
S11305E060FF04C06F5F7F4F8F4F9F4F089557FD8B
S11305F09058440F551F59F05F3F71F04795880F8D
S113060097FB991F61F09F3F79F087950895121623
S113061013061406551FF2CF4695F1DF08C01616CF
S113062017061806991FF1CF869571056105089480
S11306300895E894BB2766277727CB0197F9089597
S1130640FA01EE0FFF1F309621053105A1F1611566
S1130650710561F48038BFE39B0749F168949038D1
S1130660810561F08038BFEF9B0741F099234AF57B
S1130670FF3FE1053105210519F1E8940894E79558
S1130680D901AA2329F4AB2FBE2FF85FD0F310C0F1
S1130690FF5F70F4A695E0F7F73950F019F0FF3AD0
S11306A038F49F779F930DD00F9007FC90580895CE
S11306B046F00C94D50260E070E080E89FE3089572
S11306C04FE79F775F934F933F932F930E941B04B1
S11306D02F913F914F915F910E9497040C9478035E
S11306E029F416F00C94CF020C9419030C94D5023F
S11306F00E94FF02A8F39638A0F707F80F92E89437
S11307002BE33AEA48EB5FE70E94AD040F920F92A5
S11307100F924DB75EB70F920E946304E8E6F0E0D3
S11307200E94AA034F915F91EF91FF91E595EE1F0F
S1130730FF1F49F0FE57E0684427EE0F441FFA9567
S1130740E1F74195550B0E94DD030F9007FE0C94D1
S1130750D1030895DF93CF931F930F93FF92EF92EA
S1130760DF927B018C01689406C0DA2EEF010E94AF
S1130770AA04FE01E894A5912591359145915591DE
S1130780A6F3EF010E941C05FE019701A801DA946B
S113079069F7DF90EF90FF900F911F91CF91DF9158
S11307A008959B01AC0160E070E080E89FE30C9445
S11307B0F1010C94CF020C9471050E94FF02D8F34E
S11307C09923C9F3940F511DA3F39150504094F011
S11307D059F0882332F0660F771F881F91505040DC
S11307E0C1F79E3F51052CF7880F911D969587956B
S11307F097F908955F3FACF0983E9CF0BB2786952F
S113080077956795B79508F4B1609395C1F7BB0FD9
S113081058F711F460FFE8CF6F5F7F4F8F4F9F4F02
S1130820E3CF0C941A0316F00C9471050C94D502C2
S113083068940C94CF020E94FF02A8F39923C1F399
S1130840AEF3DF93CF931F930F93FF92C92FDD274E
S113085088232AF02197660F771F881FDAF720E094
S113086030E040E85FEB9FE3883920F0803E38F0C9
S113087021968F770E940505E0E9F0E004C00E940C
S11308800505EDEBF0E00E94AA038B01BE01EC012B
S1130890FB2E6F5771097595771F880B990B0E9472
S11308A0940228E132E741E35FE30E94AA04AF2DFA
S11308B09801AE01FF900F911F91CF91DF910E949B
S11308C01C050C94E602FA01DC01AA0FBB1F9B0174
S11308D0AC01BF5728F4222733274427507820C07F
S11308E0B75190F4AB2F0024469537952795011CFA
S11308F0A395D2F3002071F0220F331F441FB39548
S1130900DAF30ED00C94040561307105A0E88A076F
S1130910B94630F49B01AC01662777278827907885
S1130920309621F0208331834283538308950E94BB
S1130930AA040C94E6020E94D80238F00E94DF0256
S113094020F0952311F00C94CF020C94D5021124BD
S11309500C941A030E94F70270F3959FC1F3950F4C
S113096050E0551F629FF001729FBB27F00DB11D2F
S1130970639FAA27F00DB11DAA1F649F6627B00DBF
S1130980A11D661F829F2227B00DA11D621F739FA8
S1130990B00DA11D621F839FA00D611D221F749FB6
S11309A03327A00D611D231F849F600D211D822FFD
S11309B0762F6A2F11249F5750409AF0F1F0882324
S11309C04AF0EE0FFF1FBB1F661F771F881F915051
S11309D05040A9F79E3F510580F00C94CF020C942F
S11309E01A035F3FE4F3983ED4F3869577956795B1
S11309F0B795F795E7959F5FC1F7FE2B880F911D7B
S1130A009695879597F908955058BB27AA270E9471
S1130A101C050C94E6020E94D80238F00E94DF0202
S1130A2020F039F49F3F19F426F40C94D5020EF407
S1130A30E095E7FB0C94CF02E92F0E94F70258F3EC
S1130A40BA17620773078407950720F079F4A6F5AF
S1130A500C9419030EF4E0950B2EBA2FA02D0B0164
S1130A60B90190010C01CA01A0011124FF27591BEF
S1130A7099F0593F50F4503E68F11A16F040A22FF5
S1130A80232F342F4427585FF3CF46953795279566
S1130A90A795F0405395C9F77EF41F16BA0B620B65
S1130AA0730B840BBAF09150A1F0FF0FBB1F661FAC
S1130AB0771F881FC2F70EC0BA0F621F731F841FEF
S1130AC048F4879577956795B795F7959E3F08F015
S1130AD0B0CF9395880F08F09927EE0F97958795D7
S1130AE008959F3F31F0915020F48795779567954D
S1130AF0B795880F911D9695879597F90895991B39
S1130B0079E004C0991F961708F0961B881F7A9500
S10D0B10C9F780950895F894FFCF0B
S1110B1A10204080039F250D9949411F0119A9
S9030000FC
