:100000000C9434000C9451000C9451000C94510049
:100010000C9451000C9451000C9451000C9451001C
:100020000C9451000C9490010C9451000C945100CC
:100030000C9451000C9451000C9451000C945100FC
:100040000C9451000C9451000C9451000C945100EC
:100050000C9451000C9451000C9451000C945100DC
:100060000C9451000C94510011241FBECFEFD8E026
:10007000DEBFCDBF11E0A0E0B1E0E4E7F4E002C0F4
:1000800005900D92A031B107D9F721E0A0E1B1E0D0
:1000900001C01D92A331B207E1F70E944C010C94FC
:1000A00038020C94000085B1826085B985E08A959C
:1000B000F1F7000085B18D7F85B90895CF93C82FE2
:1000C000662321F085B1816085B903C085B18E7F3B
:1000D00085B98AB180618AB98AB180628AB98AB1E8
:1000E00080648AB98AB180688AB98BB18F778BB9FD
:1000F0008BB18F7B8BB98BB18F7D8BB98BB18F7EA1
:100100008BB9CC231CF48BB180688BB9C6FF03C0BC
:100110008BB180648BB9C5FF03C08BB180628BB992
:10012000C4FF03C08BB180618BB90E9453008BB1B7
:100130008F778BB98BB18F7B8BB98BB18F7D8BB95F
:100140008BB18F7E8BB9C3FF03C08BB180688BB935
:10015000C2FF03C08BB180648BB9C1FF03C08BB1F8
:1001600080628BB9C0FF03C08BB180618BB90E94E4
:1001700053008BB180618BB98BB180628BB98BB12D
:1001800080648BB98BB180688BB987EB9BE001975A
:10019000F1F700C00000CF91089560E00E945E007A
:1001A000089561E00E945E000895611104C08058C6
:1001B0000E94CD00089580540E94CD00089581E0F2
:1001C0000E94CD00089561E00E945E000895CF93E3
:1001D000DF93FC0103C00E94E300FE01EF012196C2
:1001E00080818111F8CFDF91CF910895CF93C82FEF
:1001F00084B1816084B98AB180628AB984B1826035
:1002000084B98AB180618AB98AB180628AB98AB1B7
:1002100080648AB98AB180688AB98FEF99EF0197B3
:10022000F1F700C000008BB180628BB98BB18061A7
:100230008BB90E9453008FE19EE40197F1F700C053
:1002400000000E9453008FEF90E00197F1F700C08B
:1002500000000E9453008FEF90E00197F1F700C07B
:1002600000008BB18F7E8BB90E9453008FEF90E01E
:100270000197F1F700C0000088E20E94CD0088E0FD
:100280000E94CD000E94DF0086E00E94CD008C2FEE
:100290000E94CD00CF9108958CE00E94F60080E48A
:1002A0000E94CD00C0E008C0EC2FF0E0E050FF4F0E
:1002B00080810E94D100CF5FC830B0F380E80E94F7
:1002C000CD0080E00E94E30060E081E00E94D50064
:1002D00088E091E00E94E70060E08BE00E94D5009A
:1002E00081E60E94E30061E081E00E94D50082E6A1
:1002F0000E94E30061E08BE00E94D50083E60E944B
:10030000E300E1EBF0E080818E7F80838081866076
:100310008083E0E7F0E08081816080837894FFCF84
:100320001F920F920FB60F9211242F933F934F936A
:100330005F936F937F938F939F93AF93BF93EF934D
:10034000FF93CF93DF9300D0CDB7DEB780E290E28A
:100350009A838983809112018F5F80931201883183
:10036000E8F110921201809111018F5F80931101C9
:100370008A3038F0809110018F5F809310011092C5
:100380001101809110018C3310F0109210018091B6
:1003900010014AE0BE016F5F7F4F90E00E940302B0
:1003A000809110018A3048F460E085E00E94D50019
:1003B000CE0101960E94E70008C060E084E00E9440
:1003C000D500CE0101960E94E70060E087E00E9420
:1003D000D50080911101805D0E94E3000F900F9085
:1003E000DF91CF91FF91EF91BF91AF919F918F914D
:1003F0007F916F915F914F913F912F910F900FBE21
:100400000F901F901895BB274A3031F4992322F49E
:10041000BDE2909581959F4F0C940F02BB27FB0185
:100420005527AA27880F991FAA1FA41710F0A41BED
:1004300083955051B9F7A05DAA3308F0A95DA19347
:10044000009779F7B111B1931192CB010C94280266
:10045000DC01FC01672F71917723E1F7329704C02B
:100460007C916D9370836291AE17BF07C8F30895B6
:04047000F894FFCF2E
:10047400070E1C181C0E070330303A30302E3000A3
:00000001FF
