S01400004C4544696E746572727570742E737265634E
S11300000C9434000C9451000C9451000C94510045
S11300100C9451000C9451000C9451000C94510018
S11300200C9451000C9451000C9451000C94510008
S11300300C9451000C9491000C9451000C945100B8
S11300400C9451000C9451000C9451000C945100E8
S11300500C9451000C9451000C9451000C945100D8
S11300600C9451000C94510011241FBECFEFD8E022
S1130070DEBFCDBF11E0A0E0B1E0ECE6F2E002C0EB
S113008005900D92A230B107D9F721E0A2E0B1E0CA
S113009001C01D92A430B207E1F70E9478000C94CD
S11300A034010C940000FC01408121E030E002C0E6
S11300B0220F331F6A95E2F7242B20830895FC0155
S11300C0908121E030E002C0220F331F6A95E2F7ED
S11300D02095292320830895FC01408121E030E00C
S11300E002C0220F331F6A95E2F724272083089564
S11300F065E084E290E00E94530065E085E290E0D0
S11301000E945F00E1E8F0E080818B7F8083808142
S113011083608083EFE6F0E080818160808378945F
S1130120FFCF1F920F920FB60F9211242F933F937C
S11301304F935F936F937F938F939F93AF93BF93EB
S1130140EF93FF9380910201909103018330910515
S113015069F41092030110920201809100018195CB
S113016080930001813009F064C013C0019690931C
S113017003018093020120910001213089F581302F
S1130180910569F030F082309105A1F00397E9F010
S11301905AC065E084E290E00E946C0054C064E0C0
S11301A084E290E00E946C0065E084E290E00E94AA
S11301B06C0049C063E084E290E00E946C0064E05B
S11301C084E290E00E946C003EC062E084E290E031
S11301D00E946C0063E084E290E00E946C0033C0F3
S11301E0809102019091030181309105B9F008F1E9
S11301F08230910541F0039731F565E084E290E0A7
S11302000E946C0020C064E084E290E00E946C00D4
S113021065E084E290E00E946C0015C063E084E233
S113022090E00E946C0064E084E290E00E946C0024
S11302300AC062E084E290E00E946C0063E084E221
S113024090E00E946C00FF91EF91BF91AF919F915C
S11302508F917F916F915F914F913F912F910F906B
S10F02600FBE0F901F901895F894FFCF6C
S105026C01008B
S9030000FC
