:100000000C9434000C943E000C943E000C943E0082
:100010000C943E000C943E000C943E000C943E0068
:100020000C943E000C943E000C943E000C943E0058
:100030000C943E000C94AA000C943E000C943E00DC
:100040000C943E000C943E000C943E000C943E0038
:100050000C943E000C943E000C943E000C943E0028
:100060000C943E000C943E0011241FBECFEFD8E04C
:10007000DEBFCDBF0E9481000C94EE000C94000006
:10008000FC01408121E030E002C0220F331F6A955D
:10009000E2F7242B20830895FC01808121E030E0E9
:1000A00002C0220F331F6A95E2F7922F90958923A1
:1000B00080838181282B21830895FC01908121E098
:1000C00030E002C0220F331F6A95E2F72095292302
:1000D00020830895FC01408121E030E002C0220F1E
:1000E000331F6A95E2F7242720830895FC012081BD
:1000F00081E090E002C0880F991F6A95E2F78223A1
:10010000089565E084E290E00E94400065E085E2A9
:1001100090E00E945D0061E087E290E00E944C0068
:1001200061E088E290E00E945D00E1E8F0E080811B
:100130008C7F808380818460808380818B7F8083BB
:10014000808183608083EFE6F0E08081816080833E
:100150007894FFCF1F920F920FB60F9211242F9316
:100160003F934F935F936F937F938F939F93AF933F
:10017000BF93EF93FF9361E086E290E00E947600E8
:10018000882371F0E1E8F0E080818C7F80838081BA
:100190008460808365E084E290E00E946A000DC084
:1001A000E1E8F0E080818B7F8083808183608083C1
:1001B00065E084E290E00E946A00FF91EF91BF91B8
:1001C000AF919F918F917F916F915F914F913F91EF
:1001D0002F910F900FBE0F901F901895F894FFCF9E
:00000001FF
