S00F000050726F6A656B742E7372656336
S11300000C9434000C9451000C9451000C94510045
S11300100C9451000C9451000C9451000C94510018
S11300200C9451000C9428020C9451000C9451002F
S11300300C9451000C9451000C9451000C945100F8
S11300400C9451000C9451000C9451000C945100E8
S11300500C9451000C9451000C9451000C945100D8
S11300600C9451000C94510011241FBECFEFD8E022
S1130070DEBFCDBF11E0A0E0B1E0E6E4F9E002C0EC
S113008005900D92A234B107D9F721E0A2E4B1E0C2
S113009001C01D92A635B207E1F70E9485010C94B8
S11300A0A1040C940000FC01808121E030E002C036
S11300B0220F331F6A95E2F7922F9095892380834C
S11300C08181282B21830895FC01908121E030E077
S11300D002C0220F331F6A95E2F72095292320835B
S11300E00895FC01208181E090E002C0880F991FEF
S11300F06A95E2F78223089585B1826085B985E027
S11301008A95F1F7000085B18D7F85B90895CF9365
S1130110C82F662321F085B1816085B903C085B1FC
S11301208E7F85B98AB180618AB98AB180628AB9C1
S11301308AB180648AB98AB180688AB98BB18F77B1
S11301408BB98BB18F7B8BB98BB18F7D8BB98BB115
S11301508F7E8BB9CC231CF48BB180688BB9C6FF1E
S113016003C08BB180648BB9C5FF03C08BB18062BF
S11301708BB9C4FF03C08BB180618BB90E947C0032
S11301808BB18F778BB98BB18F7B8BB98BB18F7D13
S11301908BB98BB18F7E8BB9C3FF03C08BB18068E1
S11301A08BB9C2FF03C08BB180648BB9C1FF03C09C
S11301B08BB180628BB9C0FF03C08BB180618BB9F6
S11301C00E947C008BB180618BB98BB180628BB94A
S11301D08BB180648BB98BB180688BB987EB9BE062
S11301E00197F1F700C00000CF91089560E00E94EC
S11301F087000895611104C080580E94F600089594
S113020080540E94F600089581E00E94F60008954B
S113021061E00E9487000895CF93DF93FC0103C03F
S11302200E940801FE01EF01219680818111F8CF1F
S1130230DF91CF910895CF93C82F84B1816084B9A1
S11302408AB180628AB984B1826084B98AB18061DA
S11302508AB98AB180628AB98AB180648AB98AB15A
S113026080688AB98FEF99EF0197F1F700C0000019
S11302708BB180628BB98BB180618BB90E947C0099
S11302808FE19EE40197F1F700C000000E947C001A
S11302908FEF90E00197F1F700C000000E947C000E
S11302A08FEF90E00197F1F700C000008BB18F7ED3
S11302B08BB90E947C008FEF90E00197F1F700C0AA
S11302C0000088E20E94F60088E00E94F6000E9486
S11302D0040186E00E94F6008C2F0E94F600CF9164
S11302E00895ECE7F0E09081907F892B8083EAE722
S11302F0F0E080818064808380917A0086FDFCCF69
S113030080917800909179000895E0E8F0E0808190
S113031082688083E1E8F0E080818A6180838FE1F4
S11303209EE49093870080938600ECE7F0E0808160
S113033080648083EAE7F0E0808183608083808149
S11303408068808360E087E290E00E94530060E070
S113035088E290E00E9464008CE00E941B0160E04F
S113036080E00E94FA0080E091E00E940C0160E0CD
S113037088E00E94FA0089E091E00E940C01E1EB20
S1130380F0E080818A7F8083808182608083E0E7DF
S1130390F0E0808181608083789465E083E290E07E
S11303A00E94710081111AC061E081E00E94FA008C
S11303B082E191E00E940C0182E00E947101982F79
S11303C0990F990F890F8093B30083E00E94710104
S11303D0982F990F990F890F8093B40065E083E2F9
S11303E090E00E9471008823C1F261E081E00E94E4
S11303F0FA0089E191E00E940C01EAE7F0E08081D3
S11304008064808380917A0086FDFCCF81E090E057
S113041090934D0180934C018FEF8093B3006091D2
S11304204C0170914D0180E090E00E94710320E046
S113043030E040EB50E40E94FF0320E030E04AEF5C
S113044053E40E94D6020E9442036093B400A5CFF5
S11304501F920F920FB60F9211242F933F934F9335
S11304605F936F937F938F939F93AF93BF93EF9318
S1130470FF93809148018B3F20F48F5F8093480164
S113048002C01092480160E086E290E00E94710090
S113049081110DC080914B01811111C080914901DE
S11304A08F5F8093490181E080934B0108C060E035
S11304B086E290E00E947100811110924B018091BC
S11304C04A01813079F030F0823071F1833009F4DF
S11304D042C05AC080914901813009F055C08093CF
S11304E04A0152C080914901823011F480934A013B
S11304F060E080E00E94FA008EE191E00E940C012D
S113050060E087E00E94FA004AE062E471E080E083
S113051090E00E946C0482E491E00E940C0160E08F
S11305208DE00E94FA0030C080914901833011F4BB
S113053080934A0160E080E00E94FA0087E291E043
S11305400E940C0160E088E00E94FA0080E391E0E0
S11305500E940C0119C080914901843028F081E087
S113056080934A018093490160E080E00E94FA0090
S113057088E391E00E940C0160E088E00E94FA00A8
S113058080E391E00E940C01FF91EF91BF91AF9144
S11305909F918F917F916F915F914F913F912F9197
S11305A00F900FBE0F901F9018955058BB27AA2785
S11305B00E94ED020C94C5030E94B70338F00E9418
S11305C0BE0320F039F49F3F19F426F40C94B403CD
S11305D00EF4E095E7FB0C94AE03E92F0E94D603DA
S11305E058F3BA17620773078407950720F079F464
S11305F0A6F50C94F8030EF4E0950B2EBA2FA02D5B
S11306000B01B90190010C01CA01A0011124FF27BB
S1130610591B99F0593F50F4503E68F11A16F040B6
S1130620A22F232F342F4427585FF3CF46953795B5
S11306302795A795F0405395C9F77EF41F16BA0B7A
S1130640620B730B840BBAF09150A1F0FF0FBB1F28
S1130650661F771F881FC2F70EC0BA0F621F731F71
S1130660841F48F4879577956795B795F7959E3FCE
S113067008F0B0CF9395880F08F09927EE0F97955F
S1130680879508950E94DE0388F09F5798F0B92F4C
S11306909927B751B0F0E1F0660F771F881F991FB3
S11306A01AF0BA95C9F714C0B13091F00E94F8035A
S11306B0B1E008950C94F803672F782F8827B85F6A
S11306C039F0B93FCCF3869577956795B395D9F70B
S11306D03EF490958095709561957F4F8F4F9F4F15
S11306E00895E89409C097FB3EF490958095709521
S11306F061957F4F8F4F9F4F9923A9F0F92F96E96A
S1130700BB279395F695879577956795B795F111DE
S1130710F8CFFAF4BB0F11F460FF1BC06F5F7F4F7B
S11307208F4F9F4F16C0882311F096E911C077238D
S113073021F09EE8872F762F05C0662371F096E896
S1130740862F70E060E02AF09A95660F771F881F65
S1130750DAF7880F9695879597F9089597F99F6723
S113076080E870E060E008959FEF80EC0895002435
S11307700A941616170618060906089500240A9402
S113078012161306140605060895092E0394000C88
S113079011F4882352F0BB0F40F4BF2B11F460FF17
S11307A004C06F5F7F4F8F4F9F4F089557FD905840
S11307B0440F551F59F05F3F71F04795880F97FB21
S11307C0991F61F09F3F79F08795089512161306DB
S11307D01406551FF2CF4695F1DF08C0161617060A
S11307E01806991FF1CF869571056105089408953F
S11307F0E894BB2766277727CB0197F908950E94D1
S113080012040C94C5030E94B70338F00E94BE037F
S113081020F0952311F00C94AE030C94B40311242E
S11308200C94F9030E94D60370F3959FC1F3950FBE
S113083050E0551F629FF001729FBB27F00DB11D60
S1130840639FAA27F00DB11DAA1F649F6627B00DF0
S1130850A11D661F829F2227B00DA11D621F739FD9
S1130860B00DA11D621F839FA00D611D221F749FE7
S11308703327A00D611D231F849F600D211D822F2E
S1130880762F6A2F11249F5750409AF0F1F0882355
S11308904AF0EE0FFF1FBB1F661F771F881F915082
S11308A05040A9F79E3F510580F00C94AE030C9480
S11308B0F9035F3FE4F3983ED4F386957795679503
S11308C0B795F795E7959F5FC1F7FE2B880F911DAC
S11308D09695879597F90895BB274A3031F4992363
S11308E022F4BDE2909581959F4F0C947804BB2728
S11308F0FB015527AA27880F991FAA1FA41710F0D8
S1130900A41B83955051B9F7A05DAA3308F0A95DE3
S1130910A193009779F7B111B1931192CB010C9483
S11309209104DC01FC01672F71917723E1F7329781
S113093004C07C916D9370836291AE17BF07C8F3B6
S10909400895F894FFCFB6
S113094657656174686572200073746174696F6EAB
S113095620004D414E55414C004155544F00202036
S113096654454D503A200020202048554D3A200049
S113097676616C75652020002050524553533A2009
S105098600006B
S9030000FC
