S00F000050726F6A656B742E7372656336
S11300000C9434000C9451000C9451000C94510045
S11300100C9451000C9451000C9451000C94510018
S11300200C9451000C949D010C9451000C945100BB
S11300300C9451000C9451000C9451000C945100F8
S11300400C9451000C9451000C9451000C945100E8
S11300500C9451000C9451000C9451000C945100D8
S11300600C9451000C94510011241FBECFEFD8E022
S1130070DEBFCDBF11E0A0E0B1E0E2E0F5E002C0F8
S113008005900D92A633B107D9F721E0A6E3B1E0BC
S113009001C01D92A034B207E1F70E9471010C94D3
S11300A07F020C940000FC01808121E030E002C05A
S11300B0220F331F6A95E2F7922F9095892380834C
S11300C08181282B21830895FC01908121E030E077
S11300D002C0220F331F6A95E2F72095292320835B
S11300E00895FC01208181E090E002C0880F991FEF
S11300F06A95E2F78223089585B1826085B985E027
S11301008A95F1F7000085B18D7F85B90895CF9365
S1130110C82F662321F085B1816085B903C085B1FC
S11301208E7F85B98AB180618AB98AB180628AB9C1
S11301308AB180648AB98AB180688AB98BB18F77B1
S11301408BB98BB18F7B8BB98BB18F7D8BB98BB115
S11301508F7E8BB9CC231CF48BB180688BB9C6FF1E
S113016003C08BB180648BB9C5FF03C08BB18062BF
S11301708BB9C4FF03C08BB180618BB90E947C0032
S11301808BB18F778BB98BB18F7B8BB98BB18F7D13
S11301908BB98BB18F7E8BB9C3FF03C08BB18068E1
S11301A08BB9C2FF03C08BB180648BB9C1FF03C09C
S11301B08BB180628BB9C0FF03C08BB180618BB9F6
S11301C00E947C008BB180618BB98BB180628BB94A
S11301D08BB180648BB98BB180688BB987EB9BE062
S11301E00197F1F700C00000CF91089560E00E94EC
S11301F087000895611104C080580E94F600089594
S113020080540E94F600089581E00E94F60008954B
S113021061E00E9487000895CF93DF93FC0103C03F
S11302200E940801FE01EF01219680818111F8CF1F
S1130230DF91CF910895CF93C82F84B1816084B9A1
S11302408AB180628AB984B1826084B98AB18061DA
S11302508AB98AB180628AB98AB180648AB98AB15A
S113026080688AB98FEF99EF0197F1F700C0000019
S11302708BB180628BB98BB180618BB90E947C0099
S11302808FE19EE40197F1F700C000000E947C001A
S11302908FEF90E00197F1F700C000000E947C000E
S11302A08FEF90E00197F1F700C000008BB18F7ED3
S11302B08BB90E947C008FEF90E00197F1F700C0AA
S11302C0000088E20E94F60088E00E94F6000E9486
S11302D0040186E00E94F6008C2F0E94F600CF9164
S11302E0089560E087E290E00E94530060E088E2B5
S11302F090E00E9464008CE00E941B0160E080E0BA
S11303000E94FA0080E091E00E940C0160E088E025
S11303100E94FA0089E091E00E940C01E1EBF0E018
S113032080818A7F8083808182608083E0E7F0E03F
S11303308081816080837894FFCF1F920F920FB6E3
S11303400F9211242F933F934F935F936F937F9357
S11303508F939F93AF93BF93EF93FF9380913C014F
S11303608B3F20F48F5F80933C0102C010923C01CC
S113037060E086E290E00E94710081110DC08091DE
S11303803F01811111C080913D018F5F80933D0138
S113039081E080933F0108C060E086E290E00E9423
S11303A07100811110923F0180913E01813079F0FA
S11303B030F0823071F1833009F442C05AC0809128
S11303C03D01813009F055C080933E0152C08091B7
S11303D03D01823011F480933E0160E080E00E9490
S11303E0FA0082E191E00E940C0160E087E00E9443
S11303F0FA004AE066E371E080E090E00E944A027D
S113040086E391E00E940C0160E08DE00E94FA0016
S113041030C080913D01833011F480933E0160E04F
S113042080E00E94FA008BE191E00E940C0160E000
S113043088E00E94FA0084E291E00E940C0119C055
S113044080913D01843028F081E080933E018093C7
S11304503D0160E080E00E94FA008CE291E00E949D
S11304600C0160E088E00E94FA0084E291E00E94BE
S11304700C01FF91EF91BF91AF919F918F917F916B
S11304806F915F914F913F912F910F900FBE0F90FD
S11304901F901895BB274A3031F4992322F4BDE20A
S11304A0909581959F4F0C945602BB27FB015527CD
S11304B0AA27880F991FAA1FA41710F0A41B8395BD
S11304C05051B9F7A05DAA3308F0A95DA193009734
S11304D079F7B111B1931192CB010C946F02DC0145
S11304E0FC01672F71917723E1F7329704C07C9167
S11304F06D9370836291AE17BF07C8F30895F894A3
S1050500FFCF27
S113050257656174686572200073746174696F6EF3
S11305122000202054454D503A20002020204855E8
S11305224D3A200076616C756520200020505245BA
S109053253533A200000BF
S9030000FC
