:100000000C9434000C9451000C9451000C94510049
:100010000C9451000C9451000C9451000C9451001C
:100020000C9451000C9451000C9451000C9451000C
:100030000C9451000C946C000C9451000C945100E1
:100040000C9451000C9451000C942F010C945D0100
:100050000C9451000C9451000C9451000C945100DC
:100060000C9451000C94510011241FBECFEFD8E026
:10007000DEBFCDBF11E0A0E0B1E0E6EFF3E002C0EB
:1000800005900D92AC32B107D9F721E0ACE2B1E0B6
:1000900001C01D92A137B207E1F70E9453000C94F2
:1000A000F9010C9400000E94FE0087E690E00E9497
:1000B0008701E1E8F0E080818A7F8083808182602F
:1000C0008083EFE6F0E0808181608083789482E035
:1000D00091E00E94B501FFCF1F920F920FB60F92D1
:1000E00011241F932F933F934F935F936F937F93AD
:1000F0008F939F93AF93BF93EF93FF93CF93DF9330
:1001000000D0CDB7DEB780E390E39A8389838091F6
:100110000101823099F0833019F1813009F055C026
:100120008091000191E0980F9093000187508037F3
:1001300008F04EC082E0809301014AC08091000126
:10014000880F0E940D01182F0E942B01111104C06D
:1001500083E0809301013CC081E08093010138C0BD
:10016000809100014AE0BE016F5F7F4F90E00E94E6
:10017000C401CE0101960E94B5018DE00E94A0014C
:100180008AE00E94A001809100018C35D1F489EBB6
:100190000E940D014AE0BE016F5F7F4F90E00E9418
:1001A000C40180E291E00E94B501CE0101960E9457
:1001B000B5018DE00E94A0018AE00E94A0010E948A
:1001C0002B0181E08093010103C081E08093010154
:1001D0000F900F90DF91CF91FF91EF91BF91AF9171
:1001E0009F918F917F916F915F914F913F912F914F
:1001F0001F910F900FBE0F901F90189587B18F7CA5
:1002000087B988B1806388B9E9EBF0E080818C7FA1
:10021000808388E98093B800089594EA9093BC00A5
:10022000ECEBF0E090819923ECF78093BB0084E83D
:100230008093BC00ECEBF0E080818823ECF7909198
:10024000B900987F983129F081E0903419F480E06A
:10025000089580E0089584E98093BC0008951F927A
:100260000F920FB60F9211242F938F939F93EF93BA
:10027000FF938091C0002091C6008C71E0912E0107
:10028000EF5FEF7190912D01E91739F0E0932E01A6
:10029000F0E0EF5CFE4F208301C082E090912C01E2
:1002A000892B80932C01FF91EF919F918F912F913A
:1002B0000F900FBE0F901F9018951F920F920FB6C0
:1002C0000F9211248F939F93EF93FF93909130019E
:1002D00080912F01981769F0E0912F01EF5FEF7186
:1002E000E0932F01F0E0EF5AFE4F80818093C6002B
:1002F00005C0E1ECF0E080818F7D8083FF91EF917C
:100300009F918F910F900FBE0F901F901895109294
:10031000300110922F0110922E0110922D0199237D
:100320001CF422E02093C00090789093C500809345
:10033000C40088E98093C10086E08093C2000895DC
:10034000209130012F5F2F7190912F012917E1F338
:10035000E22FF0E0EF5AFE4F808320933001E1EC72
:10036000F0E08081806280830895CF93DF93EC0179
:100370008881882331F021960E94A0018991811102
:10038000FBCFDF91CF910895BB274A3031F49923F9
:1003900022F4BDE2909581959F4F0C94D001BB272C
:1003A000FB015527AA27880F991FAA1FA41710F031
:1003B000A41B83955051B9F7A05DAA3308F0A95D3D
:1003C000A193009779F7B111B1931192CB010C94DD
:1003D000E901DC01FC01672F71917723E1F7329786
:1003E00004C07C916D9370836291AE17BF07C8F310
:0603F0000895F894FFCF10
:1003F60007010D0A5363616E204932432D627573FE
:1004060020666F7220646576696365733A0D0A002B
:0C0416005465706C6F7461206A653A00D8
:00000001FF
