:100000000C9434000C943E000C943E000C943E0082
:100010000C943E000C943E000C943E000C943E0068
:100020000C943E000C943E000C943E000C943E0058
:100030000C943E000C943E000C943E000C943E0048
:100040000C943E000C943E000C943E000C943E0038
:100050000C943E000C943E000C943E000C943E0028
:100060000C943E000C943E0011241FBECFEFD8E04C
:10007000DEBFCDBF0E9440000C9429010C9400000B
:1000800084B1806284B985B18F7D85B92FEF3EE957
:1000900084E2215030408040E1F700C0000095B17B
:1000A00080E2982795B99FEF29E638E191502040EA
:1000B0003040E1F700C0000095B1982795B99FEF57
:1000C00024E33CE0915020403040E1F700C00000C4
:1000D00095B1982795B99FEF24E33CE091502040DB
:1000E0003040E1F700C0000095B1982795B99FEF27
:1000F00024E33CE0915020403040E1F700C0000094
:1001000095B1982795B99FEF24E33CE091502040AA
:100110003040E1F700C0000095B1982795B99FEFF6
:100120002EE934E2915020403040E1F700C0000059
:1001300095B1982795B99FEF24E33CE0915020407A
:100140003040E1F700C0000095B1982795B99FEFC6
:100150002EE934E2915020403040E1F700C0000029
:1001600095B1982795B99FEF24E33CE0915020404A
:100170003040E1F700C0000095B1982795B99FEF96
:1001800024E33CE0915020403040E1F700C0000003
:1001900095B1982795B99FEF24E33CE0915020401A
:1001A0003040E1F700C0000095B1982795B99FEF66
:1001B00024E33CE0915020403040E1F700C00000D3
:1001C00095B1982795B99FEF29E638E191502040E5
:1001D0003040E1F700C0000095B1982795B99FEF36
:1001E00024E33CE0915020403040E1F700C00000A3
:1001F00095B1982795B99FEF24E33CE091502040BA
:100200003040E1F700C0000095B1982795B99FEF05
:1002100024E33CE0915020403040E1F700C0000072
:1002200095B1982795B99FEF24E33CE09150204089
:100230003040E1F700C0000095B1892785B98FEF04
:1002400094E32CE0815090402040E1F700C0000092
:060250001DCFF894FFCF62
:00000001FF
